{
  "contractName": "Lottery",
  "abi": [
    {
      "constant": true,
      "inputs": [],
      "name": "manager",
      "outputs": [
        {
          "name": "",
          "type": "address"
        }
      ],
      "payable": false,
      "stateMutability": "view",
      "type": "function"
    },
    {
      "constant": true,
      "inputs": [],
      "name": "winner",
      "outputs": [
        {
          "name": "",
          "type": "address"
        }
      ],
      "payable": false,
      "stateMutability": "view",
      "type": "function"
    },
    {
      "constant": true,
      "inputs": [
        {
          "name": "",
          "type": "uint256"
        }
      ],
      "name": "players",
      "outputs": [
        {
          "name": "",
          "type": "address"
        }
      ],
      "payable": false,
      "stateMutability": "view",
      "type": "function"
    },
    {
      "inputs": [],
      "payable": false,
      "stateMutability": "nonpayable",
      "type": "constructor"
    },
    {
      "constant": false,
      "inputs": [],
      "name": "enter",
      "outputs": [],
      "payable": true,
      "stateMutability": "payable",
      "type": "function"
    },
    {
      "constant": false,
      "inputs": [],
      "name": "pickWinner",
      "outputs": [],
      "payable": false,
      "stateMutability": "nonpayable",
      "type": "function"
    },
    {
      "constant": true,
      "inputs": [],
      "name": "getPlayerCnt",
      "outputs": [
        {
          "name": "",
          "type": "uint256"
        }
      ],
      "payable": false,
      "stateMutability": "view",
      "type": "function"
    }
  ],
  "bytecode": "0x608060405234801561001057600080fd5b50336000806101000a81548173ffffffffffffffffffffffffffffffffffffffff021916908373ffffffffffffffffffffffffffffffffffffffff16021790555061057b806100606000396000f3fe6080604052600436106100555760003560e01c8063481c6a751461005a5780635d495aea146100b15780635e00ac7c146100c8578063dfbf53ae146100f3578063e97dcb621461014a578063f71d96cb14610154575b600080fd5b34801561006657600080fd5b5061006f6101cf565b604051808273ffffffffffffffffffffffffffffffffffffffff1673ffffffffffffffffffffffffffffffffffffffff16815260200191505060405180910390f35b3480156100bd57600080fd5b506100c66101f4565b005b3480156100d457600080fd5b506100dd610372565b6040518082815260200191505060405180910390f35b3480156100ff57600080fd5b5061010861037f565b604051808273ffffffffffffffffffffffffffffffffffffffff1673ffffffffffffffffffffffffffffffffffffffff16815260200191505060405180910390f35b6101526103a5565b005b34801561016057600080fd5b5061018d6004803603602081101561017757600080fd5b8101908080359060200190929190505050610420565b604051808273ffffffffffffffffffffffffffffffffffffffff1673ffffffffffffffffffffffffffffffffffffffff16815260200191505060405180910390f35b6000809054906101000a900473ffffffffffffffffffffffffffffffffffffffff1681565b6000809054906101000a900473ffffffffffffffffffffffffffffffffffffffff1673ffffffffffffffffffffffffffffffffffffffff163373ffffffffffffffffffffffffffffffffffffffff161461024d57600080fd5b600060018054905061025d61045c565b8161026457fe5b0690506001818154811061027457fe5b9060005260206000200160009054906101000a900473ffffffffffffffffffffffffffffffffffffffff16600260006101000a81548173ffffffffffffffffffffffffffffffffffffffff021916908373ffffffffffffffffffffffffffffffffffffffff160217905550600260009054906101000a900473ffffffffffffffffffffffffffffffffffffffff1673ffffffffffffffffffffffffffffffffffffffff166108fc3073ffffffffffffffffffffffffffffffffffffffff16319081150290604051600060405180830381858888f1935050505015801561035e573d6000803e3d6000fd5b50600060018161036e91906104fe565b5050565b6000600180549050905090565b600260009054906101000a900473ffffffffffffffffffffffffffffffffffffffff1681565b662386f26fc1000034116103b857600080fd5b60013390806001815401808255809150509060018203906000526020600020016000909192909190916101000a81548173ffffffffffffffffffffffffffffffffffffffff021916908373ffffffffffffffffffffffffffffffffffffffff16021790555050565b6001818154811061042d57fe5b906000526020600020016000915054906101000a900473ffffffffffffffffffffffffffffffffffffffff1681565b6000444260016040516020018084815260200183815260200182805480156104d957602002820191906000526020600020905b8160009054906101000a900473ffffffffffffffffffffffffffffffffffffffff1673ffffffffffffffffffffffffffffffffffffffff168152602001906001019080831161048f575b505093505050506040516020818303038152906040528051906020012060001c905090565b81548183558181111561052557818360005260206000209182019101610524919061052a565b5b505050565b61054c91905b80821115610548576000816000905550600101610530565b5090565b9056fea165627a7a723058204e89fd643f63d8fe99e6b5493a31aa5d51a6f5dd7f9ce58a5415aef43510e7c80029",
  "source": "pragma solidity ^0.5.6;\n\ncontract Lottery {\n    address public manager;\n    address payable []  public  players;\n    address payable public winner; \n    \n    constructor() public {\n        manager = msg.sender;\n    }\n\n    function enter() public payable {\n        require(msg.value > .01 ether);        \n        players.push(msg.sender);\n    }\n\n    function random() private view returns (uint) {\n        return uint(keccak256(abi.encodePacked(block.difficulty, now, players)));\n    }\n\n    function pickWinner() public restricted {\n        uint index = random() % players.length;\n        winner = players[index];\n        winner.transfer(address(this).balance);\n        players.length =0;\n    }\n\n    modifier restricted() {\n        require(msg.sender == manager);\n        _;\n    }\n\n    function getPlayerCnt() public view returns (uint) {\n        return players.length;\n    }\n}\n",
  "sourcePath": "C:\\Users\\Nick\\Desktop\\blottery\\blockchain-lottery-ok\\contracts\\Lottery.sol",
  "compiler": {
    "name": "solc",
    "version": "0.5.6+commit.b259423e.Emscripten.clang"
  },
  "schemaVersion": "3.2.1",
  "updatedAt": "2020-07-13T03:24:10.666Z",
  "networkType": "ethereum",
  "devdoc": {
    "methods": {}
  },
  "userdoc": {
    "methods": {}
  }
}